:02000000F62BDD
:100622000034FF34AA3455340630831603139F0076
:1006320083120313061286108316031306168614FA
:1006420008008316031386108312031386102130C9
:10065200C000C00B2A2B8316031306162130C000DC
:10066200C00B312B8316031386142130C000C00B3C
:10067200382B0800C4005623A030A523C500450826
:100682000319442B452B482B22230130552B4408B8
:10069200A523C500450803194F2B502B532B2223AA
:1006A2000230552B222300300800831603138614D0
:1006B20006162130C000C00B5C2B83160313861074
:1006C2008312031386102130C000C00B662B8316E1
:1006D200031306128312031306122130C000C00B4B
:1006E200702B08005208CC005108CB005008CA00F9
:1006F2004F08C900CE0183160313051315234E08B4
:10070200493E840000083B23CD004D0803198A2B83
:100712008B2B8F2B831203130517922B8312031338
:1007220005134E08013E0339CE000630C8001330CF
:10073200C700AD30C600C60B9C2BC70B9C2BC80B49
:100742009C2BA32B802B0028C100C301C11FAA2B05
:10075200AB2BAF2B831603138614B52B831603130F
:1007620086108312031386102130C000C00BB72BF2
:100772008316031306162130C000C00BBE2B83164E
:10078200031306128312031306122130C000C00B9A
:10079200C82B0310C10D0130C0004008C307083048
:1007A2004302031CD52BD62BA72B831603138614C7
:1007B2002130C000C00BDB2B831603130616213039
:1007C200C000C00BE22B00308312031386180130E5
:1007D200C20083160313061283120313061221307A
:1007E200C000C00BF22B420808001123CF001223D5
:0E07F200D0001323D1001423D2008301732BF7
:00000001FF
