:020000000A28CC
:10000800FE00030EC0000A08C10076280B28C801AC
:10001800C90183010F2883160313051085100511E4
:10002800851105128312031305108510051185111A
:1000380005120630831603139F0050309C20C70119
:100048004808031928282928392883120313050E7C
:100058000139C5000130C506C50E05084506EF394A
:10006800450685004908C700C80101304705C50095
:100078008312031305084506FE394506850047081F
:10008800C5000310450C0139C600C60D0508460613
:10009800FD39460685004708C50002300310C50C27
:1000A800FF3E031D522845080139C600C60DC60D7E
:1000B80005084606FB39460685004708C500033093
:1000C8000310C50CFF3E031D642845080139C6000E
:1000D800C60DC60DC60D05084606F7394606850045
:1000E80024280A28831203138C1D7B287C28952832
:1000F800831603131419812882289328941A8528B3
:1001080086288C28831203131308C2001416932818
:10011800831203131308C9000130C8001416831290
:100128008C1141088A00400E8300FE0E7E0E0900E5
:10013800C4004408C30043078316031393003630F2
:1001480083120313940080308316031394008614DB
:100158000616831203138C11831603138C150B17C1
:040168008B170800E9
:00000001FF
