:02000000FE2BD5
:10042A00C401C501401C1A2A1B2A212A4208C407F2
:10043A000318C50A4308C50701300310C20DC30DCE
:10044A00FF3E031D222A01300310C10CC00CFF3EDF
:10045A00031D292A40084104031D342A352A172A74
:10046A004508C1004408C00008004D084E0403199D
:10047A003F2A402A6D2A0130D1004C2A013003104C
:10048A00CD0DCE0DFF3E031D442A0130D107CE1FEC
:10049A004F2A502A432A4E085002031D562A4D0855
:1004AA004F02031C592A5A2A602A4D08CF024E08C5
:1004BA00031CD003D00201300310CE0CCD0CFF3E3A
:1004CA00031D612A0130D102031D6C2A6D2A502AAC
:1004DA005008CE004F08CD000800CA01CB014608DB
:1004EA0047040319792A7A2AAF2A0130CC00862ACE
:1004FA0001300310C60DC70DFF3E031D7E2A0130D1
:10050A00CC07C71F892A8A2A7D2A01300310CA0DFF
:10051A00CB0DFF3E031D8B2A47084902031D972A6C
:10052A0046084802031C9A2A9B2AA22A4608C8029D
:10053A004708031CC903C9024A1401300310C70C37
:10054A00C60CFF3E031DA32A0130CC02031DAE2AAE
:10055A00AF2A8A2A4B08C7004A08C6000800E501E4
:10056A00E60183160313860105110514F930E2002A
:10057A00BE2AE20BBD2AC12AC22A413083120313C2
:10058A009F008E30831603139F00831203131F15D7
:10059A00D52AF930E200D12AE20BD02AD42AD52A68
:1005AA00831203131F19DA2ADB2ACE2A1E08E40053
:1005BA00831603131E08E300FF30C6000330C7008A
:1005CA006408C1006308C0008830C2001330C30049
:1005DA0015224108C9004008C80072224708E600EF
:1005EA004608E5006608D3006508D200FE22BB2A49
:1005FA000028E830C6000330C7005308C900520873
:10060A00C80072224708D9004608D8000A30CD002F
:10061A000030CE006430C6000030C7005308C9005D
:10062A005208C80072224708D0004608CF003A2272
:10063A004E08DB004D08DA000A30CD000030CE004B
:10064A000A30C6000030C7005308C9005208C80063
:10065A0072224708D0004608CF003A224E08DD0031
:10066A004D08DC000A30CD000030CE005308D0001F
:10067A005208CF003A224E08DF004D08DE00E001A2
:10068A00E1016008D4005407583E84000130000597
:10069A00D5008312031306085506FE39550686004F
:1006AA006008D4005407583E84000008D500840A24
:1006BA000008D600560DD60CD50C55080139D700BE
:1006CA00D70D06085706FD39570686006008D4007C
:1006DA005407583E84000008D500840A0008D60052
:1006EA00560DD60CD50C560DD60CD50C550801391D
:1006FA00D700D70DD70D06085706FB3957068600CF
:10070A006008D4005407583E84000008D500840AC3
:10071A000008D600560DD60CD50C560DD60CD50CA5
:10072A00560DD60CD50C55080139D700D70DD70D63
:10073A00D70D06085706F7395706860003306006B4
:10074A0061040319A92BAD2B831203130616B02BD0
:10075A008312031306120230600661040319B62BD2
:10076A00BA2B831203138616BD2B83120313861228
:10077A00600361040319C22BC62B831203130617E5
:10078A00C92B831203130613600861040319CE2BC5
:10079A00D22B831203138617D52B831203138613C6
:1007AA0060086104031DDA2BDE2B8312031305157F
:1007BA00E12B8312031305110430D5003D30D40018
:1007CA00D40BE52BD50BE52BEA2B0130E0070318F8
:1007DA00E10A0030E1076108803AFF0080307F02B9
:1007EA00031DF92B04306002031CFC2BFD2B462B46
:0607FA0008008301B42A8F
:02400E00183F59
:00000001FF
