:02000000FE2BD5
:10046600C401C501401C3D2A4208C4070318C50A39
:100476004308C50701300310C20DC30DFF3E031D1F
:100486003E2A01300310C10CC00CFF3E031D452A55
:1004960040084104031D352A4508C1004408C00030
:1004A60008004D084E0403197F2A0130D100CE1BE7
:1004B600662A01300310CD0DCE0DFF3E031D5D2AC9
:1004C6000130D1075A2A4E085002031D6C2A4D08E6
:1004D6004F02031C742A4D08CF024E08031CD0039A
:1004E600D00201300310CE0CCD0CFF3E031D752A41
:1004F6000130D102031D662A5008CE004F08CD00F8
:100506000800CA01CB01460847040319B92A01307D
:10051600CC00C71B982A01300310C60DC70DFF3E3D
:10052600031D8F2A0130CC078C2A01300310CA0D17
:10053600CB0DFF3E031D992A47084902031DA52A34
:1005460046084802031CAE2A4608C8024708031C90
:10055600C903C9024A1401300310C70CC60CFF3E7A
:10056600031DAF2A0130CC02031D982A4B08C70091
:100576004A08C6000800E501E60183160313860152
:1005860005110514F930E200C82AE20BC72ACB2A66
:10059600CC2A4130831203139F008E308316031337
:1005A6009F00831203131F15831203131F1DE32AD3
:1005B600F930E200DE2AE20BDD2AE12AE22AD72A16
:1005C6001E08E400831603131E08E300FF30C6006E
:1005D6000330C7006408C1006308C0008830C20049
:1005E6001330C30033224108C9004008C8008422E2
:1005F6004708E6004608E5006608D3006508D2000D
:100606000523C52AE830C6000330C7005308C900D1
:100616005208C80084224708D9004608D8000A3084
:10062600CD000030CE006430C6000030C70053084D
:10063600C9005208C80084224708D0004608CF00E7
:1006460054224E08DB004D08DA000A30CD00003097
:10065600CE000A30C6000030C7005308C900520851
:10066600C80084224708D0004608CF0054224E080E
:10067600DD004D08DC000A30CD000030CE00530806
:10068600D0005208CF0054224E08DF004D08DE008D
:10069600E001E1016008D4005407583E84000130AF
:1006A6000005D5008312031306085506FE395506C4
:1006B60086006008D4005407583E84000008D50020
:1006C600840A0008D600560DD60CD50C55080139FB
:1006D600D700D70D06085706FD395706860060086D
:1006E600D4005407583E84000008D500840A000848
:1006F600D600560DD60CD50C560DD60CD50C550875
:100706000139D700D70DD70D06085706FB3957060E
:1007160086006008D4005407583E84000008D500BF
:10072600840A0008D600560DD60CD50C560DD60CEC
:10073600D50C560DD60CD50C55080139D700D70D5A
:10074600D70DD70D06085706F7395706860003302A
:1007560060066104031DB32B831203130616B62B22
:10076600831203130612023060066104031DBF2BB9
:10077600831203138616C22B831203138612600399
:100786006104031DCA2B831203130617CD2B831294
:100796000313061360086104031DD52B831203138C
:1007A6008617D82B83120313861360086104031976
:1007B600E02B831203130515E32B83120313051194
:1007C6000430D5003D30D400D40BE72BD50BE72BF6
:1007D600EC2B0130E0070318E10A0030E10761085D
:1007E600803AFF0080307F02031DFB2B043060023D
:0A07F600031808004D2B8301BE2AF2
:02400E00183F59
:00000001FF
