:02000000FE2BD5
:10048A00C401C501401C4F2A4208C4070318C50A03
:10049A004308C50701300310C20DC30DFF3E031DFB
:1004AA00502A01300310C10CC00CFF3E031D572A0D
:1004BA0040084104031D472A4508C1004408C000FA
:1004CA0008004D084E040319912A0130D100CE1BB1
:1004DA00782A01300310CD0DCE0DFF3E031D6F2A81
:1004EA000130D1076C2A4E085002031D7E2A4D089E
:1004FA004F02031C862A4D08CF024E08031CD00364
:10050A00D00201300310CE0CCD0CFF3E031D872A0A
:10051A000130D102031D782A5008CE004F08CD00C1
:10052A000800CA01CB01460847040319CB2A013047
:10053A00CC00C71BAA2A01300310C60DC70DFF3E07
:10054A00031DA12A0130CC079E2A01300310CA0DCF
:10055A00CB0DFF3E031DAB2A47084902031DB72AEC
:10056A0046084802031CC02A4608C8024708031C5A
:10057A00C903C9024A1401300310C70CC60CFF3E56
:10058A00031DC12A0130CC02031DAA2A4B08C70049
:10059A004A08C6000800E401E50183168601051130
:1005AA000514F930E100D92AE10BD82ADC2ADD2A20
:1005BA004130831203139F008E3083169F008312EB
:1005CA001F15831203131F1DF22AF930E100ED2AC9
:1005DA00E10BEC2AF02AF12AE62A1E08E300831628
:1005EA001E08E200FF30C6000330C7006308C100DE
:1005FA006208C0008830C2001330C3004522410897
:10060A00C9004008C80096224708E5004608E400E9
:10061A006508D3006408D2001323D62AE830C6003E
:10062A000330C7005308C9005208C8009622470879
:10063A00D8004608D7000A30CD000030CE0064301A
:10064A00C6000030C7005308C9005208C8009622E5
:10065A004708D0004608CF0066224E08DA004D0847
:10066A00D9000A30CD000030CE000A30C600003072
:10067A00C7005308C9005208C80096224708D0008C
:10068A004608CF0066224E08DC004D08DB000A301F
:10069A00CD000030CE005308D0005208CF006622A9
:1006AA004E08DE004D08DD00DF01E0015F08D400DE
:1006BA005407573E840001300005D5008312031306
:1006CA0006085506FE39550686005F08D400540709
:1006DA00573E84000008D5000310550C0139D60096
:1006EA00D60D06085606FD39560686005F08D40060
:1006FA005407573E84000008D50002300310D50C79
:10070A00FF3E031D832B55080139D600D60DD60DA1
:10071A0006085606FB39560686005F08D4005407B9
:10072A00573E84000008D50003300310D50CFF3E65
:10073A00031D9A2B55080139D600D60DD60DD60DB4
:10074A0006085606F7395606860003305F06600427
:10075A00031DB32B831203130616B62B831203133E
:10076A00061202305F066004031DBF2B83120313B7
:10077A008616C22B8312031386125F036004031DBD
:10078A00CA2B831203130617CD2B831203130613E6
:10079A005F086004031DD52B831203138617D82B19
:1007AA008312031386135F0860040319E02B831274
:1007BA0003130515E32B8312031305110430D50027
:1007CA003D30D400D40BE72BD50BE72BEC2B0130B3
:1007DA00DF070318E00A0030E0076008803AFF00EC
:1007EA0080307F02031DFB2B04305F0203180800D0
:0607FA005B2B8301D02AF5
:02400E00183F59
:00000001FF
